:100000000C948B000C94BC000C94BC000C94BC00B1
:100010000C94BC000C94BC000C94BC000C94BC0070
:100020000C94BC000C94BC000C94BC000C94BC0060
:100030000C94BC000C94BC000C94BC000C94BC0050
:100040000C94BC000C94BC000C94BC000C94BC0040
:100050000C94BC000C94BC000C94BC000C942707BE
:100060000C94BC000C946C020C94A2020C94BC0086
:100070000C94BC000C94BC000C94BC000C94BC0010
:100080000C94BC000C94BC000C94BC000C94BC0000
:100090000C94BC000C94BC000C94BC000C94BC00F0
:1000A0000C94BC000C94BC000C94BC000C94BC00E0
:1000B0000C94BC000C94BC000C94BC000C94BC00D0
:1000C0000C94BC000C94BC000C94BC000C94BC00C0
:1000D0000C94BC000C94BC000C94BC000C94BC00B0
:1000E0000C94BC000C9432030C9446030C94E50071
:1000F0000C94A4030C94D6020C949D040C94240339
:100100000C94CC020C94C6030C9419030C94EB00D1
:10011000E500D602EB0011241FBECFEFD1E2DEBF17
:10012000CDBF00E00CBF12E0A0E0B2E0E0E9F6E1F4
:1001300000E00BBF02C007900D92AA3EB107D9F7AD
:1001400023E0AAEEB2E001C01D92A03AB207E1F7A7
:1001500011E0C4E1D1E000E006C022970109FE01F0
:100160000BBF0E940F0BC031D10780E00807A9F731
:100170000E948E040C944B0A0C9400000F931F9362
:10018000CF93DF93EC018B01681779072CF4982F3C
:100190008D2FEB01092F182F0E945309B8016C1BFA
:1001A0007D0B6F5F7F4F0E94A70A8C0F9D1FDF9111
:1001B000CF911F910F91089526E040E855E260E04D
:1001C00070E086EF92E00C942B046CED72E08AEE06
:1001D00092E00C943B068AEE92E00C94CD05CF920F
:1001E000DF92EF92FF92BC0186EF92E00E94ED0455
:1001F00086EF92E00E941903892BD1F386EF92E0FB
:100200000E94CA056B017C0186EF92E00E941903EF
:10021000892B29F086EF92E00E943203F5CFC601C8
:10022000FF90EF90DF90CF900895CF93DF93CDB7FD
:10023000DEB76E970FB6F894DEBF0FBECDBF6AE093
:1002400072E086EF92E00E94FF0483E090E09093DA
:10025000F5028093F4028091F4029091F502181651
:1002600019060CF0ACC064E670E081E090E00E94FA
:10027000BE009093F3028093F2024AE0BC01CE01EB
:100280000D960E94890666E272E0CE0143960E94B6
:100290003B06BE016D5E7F4FCE0107960E94680649
:1002A000BE01635F7F4FCE0107960E94F506BC0139
:1002B000CE0101960E946806CE0101960E94EF00D1
:1002C0009093F1028093F002CE0101960E94CD0539
:1002D000CE0107960E94CD05CE0143960E94CD0522
:1002E000CE010D960E94CD052091F0023091F102D1
:1002F0008091F2029091F3022817390739F466E3EE
:1003000072E086EF92E00E94FF04A5CF8091F40294
:100310009091F50201979093F5028093F40261E4C5
:1003200072E0CE0101960E943B066091F40270914A
:10033000F5024AE0CE0107960E9489066EE472E05B
:10034000CE0143960E943B066091F0027091F1024B
:100350004AE0CE0149960E948906BE01675E7F4F42
:10036000CE010D960E946806BE016D5E7F4FCE01E4
:100370000D960E94F506BE01695F7F4F0E94F5064B
:10038000BE016F5F7F4F0E94F506BC0186EF92E0D1
:100390000E94ED04CE010D960E94CD05CE01499636
:1003A0000E94CD05CE0143960E94CD05CE01079651
:1003B0000E94CD05CE0101960E94CD054CCF6E96D0
:1003C0000FB6F894DEBF0FBECDBFDF91CF91089579
:1003D000CF93DF93EC0186EF92E00E94ED046CED89
:1003E00072E0CE010E943B0686EF92E00E94190364
:1003F000892BD1F386EF92E00E9432038A3039F0E4
:100400008D3029F0682FCE010E94E106EDCF86EFF6
:1004100092E00E941903892B29F086EF92E00E9456
:100420003203F5CFCE01DF91CF910895CF93DF93C3
:10043000CDB7DEB72C970FB6F894DEBF0FBECDBF99
:1004400069E672E086EF92E00E94FF046CE772E0DA
:100450008AEE92E00E9471066FEA72E08AEE92E004
:100460000E94080781112DC064E872E0CE01079652
:100470000E943B06BE01695F7F4FCE0101960E943C
:10048000E801BE016F5F7F4F8AEE92E00E94510645
:10049000CE0101960E94CD05CE0107960E94CD05A2
:1004A0006BEA72E08AEE92E00E9408078823A1F2CC
:1004B0002C960FB6F894DEBF0FBECDBFDF91CF9163
:1004C000089562EB72E086EF92E00E94FF04FFCF96
:1004D0000E9415010C9416021F920F920FB60F92F4
:1004E00011240BB60F922F938F939F93EF93FF934B
:1004F000E0910603F09107038081E0910C03F091F5
:100500000D0382FD12C0908180910F038F5F8F7366
:1005100020911003821751F0E0910F03F0E0EA50B0
:10052000FD4F958F80930F0301C08081FF91EF9164
:100530009F918F912F910F900BBE0F900FBE0F9038
:100540001F9018951F920F920FB60F9211240BB6A1
:100550000F922F933F934F935F936F937F938F935C
:100560009F93AF93BF93EF93FF9386EF92E00E9428
:100570008303FF91EF91BF91AF919F918F917F91F5
:100580006F915F914F913F912F910F900BBE0F9004
:100590000FBE0F901F90189586EF92E00E941903EE
:1005A00021E0892B09F420E0822F08951092F902AE
:1005B0001092F80288EE93E0A0E0B0E08093FA0297
:1005C0009093FB02A093FC02B093FD028EEC92E0AC
:1005D0009093F7028093F60285EC90E090930303EA
:1005E0008093020384EC90E09093050380930403CE
:1005F00080EC90E0909307038093060381EC90E0F9
:10060000909309038093080382EC90E090930B038E
:1006100080930A0386EC90E090930D0380930C0383
:1006200010920F03109210031092110310921203F4
:100630000895FC01818D228D90E0805C9F4F821B8C
:1006400091098F7399270895FC01918D828D9817D8
:1006500031F0828DE80FF11D858D90E008958FEFC8
:100660009FEF0895FC01918D828D981761F0828D26
:10067000DF01A80FB11D5D968C91928D9F5F9F73D6
:10068000928F90E008958FEF9FEF08958CEC92E0A9
:10069000892B41F080E090E0892B21F00E94CC0270
:1006A000811125C080E090E0892B41F080E090E04E
:1006B000892B21F00E94000081111CC080E090E095
:1006C000892B41F080E090E0892B21F00E9400000E
:1006D000811113C080E090E0892BA1F080E090E0D0
:1006E000892B81F00E94000081110AC008950E94A8
:1006F0000000D8CF0E940000E1CF0E940000EACFA6
:100700000C9400000895FC01848DDF01A80FB11D39
:10071000A35ABF4F2C91848D90E001968F73992737
:10072000848FA689B7892C93A089B1898C91806424
:100730008C93938D848D981306C00288F389E02DE5
:1007400080818F7D80830895CF93DF93EC01888D26
:100750008823C9F0EA89FB89808185FD05C0A889C5
:10076000B9898C9186FD0FC00FB607FCF5CF80814B
:1007700085FFF2CFA889B9898C9185FFEDCFCE0195
:100780000E948303E7CFDF91CF910895CF92DF924C
:10079000FF920F931F93CF93DF931F92CDB7DEB7D6
:1007A0006C0181E0D60158968C9358975B969C918A
:1007B0005B975C968C915C97981307C05096ED916F
:1007C000FC915197808185FD2EC0F601038D10E0CC
:1007D0000F5F1F4F0F731127F02EF601848DF81253
:1007E00011C00FB607FCF9CFD6015096ED91FC91E0
:1007F0005197808185FFF1CFC60169830E948303F1
:100800006981EBCF838DE80FF11DE35AFF4F6083C1
:10081000D6015B960C935B975296ED91FC915397A2
:10082000808180620CC0D6015696ED91FC9157975D
:1008300060835096ED91FC91519780818064808314
:1008400081E090E00F90DF91CF911F910F91FF9089
:10085000DF90CF900895BF92CF92DF92EF92FF92F8
:10086000CF93DF93EC016A017B01B22EE889F9890D
:1008700082E08083411581EE580761057105A1F082
:1008800060E079E08DE390E0A70196010E94BB0A49
:1008900021503109410951095695479537952795BA
:1008A000211580E1380798F0E889F989108260E81D
:1008B00074E88EE190E0A70196010E94BB0A2150E6
:1008C0003109410951095695479537952795EC858A
:1008D000FD853083EE85FF852083188EEC89FD89A8
:1008E000B082EA89FB89808180618083EA89FB8903
:1008F000808188608083EA89FB8980818068808329
:10090000EA89FB8980818F7D8083DF91CF91FF9081
:10091000EF90DF90CF90BF90089508950E947D07DB
:100920000E948D040E94DC00C6E4D3E00E946802AD
:100930002097E1F30E944603F9CFCF92DF92EF9226
:10094000FF920F931F93CF93DF937C016A01EB011A
:1009500000E010E00C151D0571F06991D701ED91D3
:10096000FC910190F081E02DC7011995892B19F0B8
:100970000F5F1F4FEFCFC801DF91CF911F910F91F4
:10098000FF90EF90DF90CF9008956115710581F091
:10099000DB010D900020E9F7AD0141505109461BE4
:1009A000570BDC01ED91FC910280F381E02D19944D
:1009B00080E090E00895DC01ED91FC91DB0114965C
:1009C0004D915C9115976D917C910280F381E02DA2
:1009D00019946AED72E00C94C5040F931F93CF93A2
:1009E000DF93EC010E94DB048C01CE010E94E9043C
:1009F000800F911FDF91CF911F910F9108950F9359
:100A00001F93CF93DF93EC010E94C5048C01CE01AC
:100A10000E94E904800F911FDF91CF911F910F91E8
:100A200008950F931F93CF93DF93EC010E947107FA
:100A3000688779878A879B87E881F9810084F185B7
:100A4000E02DCE01199597FF15C00E94710708850A
:100A500019852A853B85601B710B820B930B0C81DA
:100A60001D812E813F81601771078207930720F354
:100A70008FEF9FEFDF91CF911F910F910895CF934B
:100A8000DF93EC01CE010E94110597FD11C08D325C
:100A9000910571F09C01205331092A30310540F055
:100AA000E881F9810680F781E02DCE011995EACF22
:100AB000DF91CF910895CF92DF92FF920F931F9312
:100AC000CF93DF9300D01F92CDB7DEB76C01062F16
:100AD0000E943F05FC0197FD4BC020E030E0A901DA
:100AE000F12C112707FD1095E017F107E9F0ED3221
:100AF000F105C1F0CF01C0970A97B0F4AAE0B0E0C9
:100B00000E94FC0A9B01AC01CF01AA2797FDA0958A
:100B1000BA2F280F391F4A1F5B1F20533109410983
:100B2000510902C0FF24F394D601ED91FC91068097
:100B3000F781E02DC60129833A834B835C831995A5
:100B4000C6010E941105FC01C09729813A814B81A1
:100B50005C810A9748F2E017F10731F2FF2061F05B
:100B600066277727CB01621B730B840B950B06C09E
:100B700060E070E0CB0102C0CA01B9010F900F9094
:100B80000F900F90DF91CF911F910F91FF90DF9009
:100B9000CF90089561E00C945B05FC018081918108
:100BA0000C947708CF93DF93EC01888199810097AB
:100BB00011F00E947708198218821D821C821B8204
:100BC0001A82DF91CF9108950F931F93CF93DF93F4
:100BD000EC018B016F5F7F4F888199810E946209D0
:100BE000009731F0998388831B830A8381E001C0D9
:100BF00080E0DF91CF911F910F910895CF93DF9304
:100C0000EC0188819981892B29F08A819B81861743
:100C1000970760F4CE010E94E405882341F08C819F
:100C20009D81892B19F4E881F981108281E0DF919F
:100C3000CF910895EF92FF920F931F93CF93DF937D
:100C4000EC017B018A01BA010E94FE05811104C0FA
:100C5000CE010E94D20507C01D830C83B701888195
:100C600099810E94600ACE01DF91CF911F910F916F
:100C7000FF90EF900895FC0111821082138212827E
:100C8000158214826115710559F0FB010190002055
:100C9000E9F7AF0141505109461B570B0C941A0656
:100CA0000895CF93DF93EC01FB018617970761F05E
:100CB000608171816115710529F0448155810E941F
:100CC0001A0602C00E94D205CE01DF91CF9108958D
:100CD000FC011182108213821282158214820C94FC
:100CE0005106CF93DF93EC016115710561F0FB01B3
:100CF00001900020E9F7AF0141505109461B570B05
:100D00000E941A0602C00E94D205CE01DF91CF9147
:100D100008950F931F93CF93DF93CDB7DEB76297FC
:100D20000FB6F894DEBF0FBECDBF8C01CB01F8012A
:100D300011821082138212821582148250E0BE0149
:100D40006F5F7F4F0E94670ABE016F5F7F4FC801D0
:100D50000E94710662960FB6F894DEBF0FBECDBF3B
:100D6000DF91CF911F910F910895EF92FF920F9312
:100D70001F93CF93DF93EC017B010C811D816115E3
:100D8000710511F480E016C04115510591F0040F72
:100D9000151FB8010E94FE058823A1F3288139811F
:100DA0008C819D81B701820F931F0E94600A1D8371
:100DB0000C8381E0DF91CF911F910F91FF90EF9015
:100DC0000895CF93DF931F921F92CDB7DEB769834B
:100DD0001A8241E050E0BE016F5F7F4F0E94B5066E
:100DE0000F900F90DF91CF910895CF93DF93EC0197
:100DF000FB0144815581608171810E94B50681119A
:100E000003C0CE010E94D205CE01DF91CF9108959B
:100E1000FC0124813581232B31F421E0611571051A
:100E2000A1F0FB0108C0FC01808191816115710571
:100E300031F421E0FC018081882339F005C00E9453
:100E4000570A21E0892B09F020E0822F08951F9294
:100E50000F920FB60F9211242F933F938F939F936E
:100E6000AF93BF938091940390919503A0919603C3
:100E7000B09197033091930323E0230F2D3720F493
:100E80000196A11DB11D05C026E8230F0296A11DE4
:100E9000B11D209393038093940390939503A093A3
:100EA0009603B09397038091980390919903A09132
:100EB0009A03B0919B030196A11DB11D80939803E5
:100EC00090939903A0939A03B0939B03BF91AF9122
:100ED0009F918F913F912F910F900FBE0F901F9078
:100EE00018952FB7F89460919403709195038091B1
:100EF0009603909197032FBF0895789484B58260EC
:100F000084BD84B5816084BD85B5826085BD85B5AD
:100F1000816085BDEEE6F0E0808181608083E1E85C
:100F2000F0E0108280818260808380818160808394
:100F3000E0E8F0E0808181608083E1EBF0E0808197
:100F400084608083E0EBF0E0808181608083E1E970
:100F5000F0E0808182608083808181608083E0E92D
:100F6000F0E0808181608083E1EAF0E0808182604E
:100F70008083808181608083E0EAF0E0808181600D
:100F80008083E1E2F1E08081826080838081816002
:100F90008083E0E2F1E0808181608083EAE7F0E035
:100FA0008081846080838081826080838081816091
:100FB00080838081806880831092C1000895CF93E0
:100FC000DF938230910510F482E090E0E0919E037F
:100FD000F0919F0320E030E0A0E0B0E0309739F1DD
:100FE0004081518148175907B8F04817590771F4E3
:100FF00082819381109729F013969C938E93129778
:101000002CC090939F0380939E0327C02115310528
:1010100031F04217530718F0A901DB0101C0EF01BD
:101020009A01BD01DF010280F381E02DD7CF2115A8
:101030003105F9F0281B390B2430310580F48A8101
:101040009B816115710521F0FB019383828304C0AC
:1010500090939F0380939E03FE01329644C0FE014D
:10106000E20FF31F81939193225031093983288332
:101070003AC020919C0330919D03232B41F4209191
:1010800002023091030230939D0320939C03209130
:101090000002309101022115310541F42DB73EB710
:1010A0004091040250910502241B350BE0919C03F2
:1010B000F0919D03E217F307A0F42E1B3F0B2817B6
:1010C000390778F0AC014E5F5F4F2417350748F0C1
:1010D0004E0F5F1F50939D0340939C038193919308
:1010E00002C0E0E0F0E0CF01DF91CF910895CF930F
:1010F000DF93009709F487C0FC01329713821282B4
:10110000C0919E03D0919F03209781F4208131816B
:10111000280F391F80919C0390919D03821793079C
:1011200079F5F0939D03E0939C036DC0DE0120E010
:1011300030E0AE17BF0750F412964D915C911397B3
:101140009D014115510509F1DA01F3CFB383A28363
:1011500040815181840F951F8A179B0771F48D91EF
:101160009C911197840F951F02969183808312960C
:101170008D919C911397938382832115310529F4D6
:10118000F0939F03E0939E033EC0D9011396FC9316
:10119000EE9312974D915D91A40FB51FEA17FB07CF
:1011A00079F480819181840F951F0296D90111965F
:1011B0009C938E938281938113969C938E93129726
:1011C000E0E0F0E08A819B81009719F0FE01EC01DC
:1011D000F9CFCE01029628813981820F931F209189
:1011E0009C0330919D032817390769F4309729F43F
:1011F00010929F0310929E0302C013821282D0931A
:101200009D03C0939C03DF91CF9108958F929F928D
:10121000AF92BF92CF92DF92EF92FF92CF93DF9384
:10122000EC01688179818A819B8161157105810555
:10123000910521F464E279ED8BE597E02DE133EF40
:1012400041E050E00E94DD0A49015A019B01AC01D6
:10125000A7EAB1E40E94FC0A6B017C01ACEEB4EF9A
:10126000A50194010E940A0BC60ED71EE81EF91EA6
:10127000F7FE06C081E0C81AD108E10880E8F80A44
:10128000C882D982EA82FB82C6019F77DF91CF9123
:10129000FF90EF90DF90CF90BF90AF909F908F9096
:1012A00008950C94060986E092E00C940609A0E0EB
:1012B000B0E08093060290930702A0930802B093D7
:1012C000090208956F927F928F929F92AF92BF9280
:1012D000CF92DF92EF92FF920F931F93CF93DF9302
:1012E000EC01CB01209781F4DF91CF911F910F91F9
:1012F000FF90EF90DF90CF90BF90AF909F908F9036
:101300007F906F900C94DF07FE01E60FF71F9E01A0
:1013100022503109E217F30708F4ACC0D9010D914E
:101320001C91119706171707B8F00530110508F43E
:101330009FC0A801445051094617570708F498C0A8
:1013400002501109061B170B019311936D937C93A7
:10135000CF010E9477088CC05B01A01AB10A4E0130
:10136000800E911EA0919E03B0919F03612C712C61
:1013700060E070E0109709F449C0A815B905C9F5F7
:10138000ED90FC901197670142E0C40ED11CCA1485
:10139000DB0478F147018A189B08640142E0C40E1F
:1013A000D11C1296BC9012971396AC91B5E0CB1657
:1013B000D10440F0B282A38391828082D9018D93BF
:1013C0009C9309C00E5F1F4F0E0D1F1DF901118365
:1013D0000083EB2DFA2F6115710531F0DB011396B7
:1013E000FC93EE93129744C0F0939F03E0939E0307
:1013F0003FC06D917C9111976616770608F43B010A
:10140000BD0112960D90BC91A02DB4CF60919C03AC
:1014100070919D0368157905E9F468167906D0F492
:1014200040910002509101024115510541F44DB720
:101430005EB76091040270910502461B570BE417DA
:10144000F507C0F4F0939D03E0939C03F9019183A9
:1014500080830EC00E94DF077C01009759F0A8012D
:10146000BE010E944E0ACE010E947708C70104C047
:10147000CE0102C080E090E0DF91CF911F910F91EB
:10148000FF90EF90DF90CF90BF90AF909F908F90A4
:101490007F906F900895F8940C94360BFB01DC015B
:1014A00002C001900D9241505040D8F70895FB01C1
:1014B000DC018D91019080190110D9F3990B0895E9
:1014C000FB01DC0101900D920020E1F70895453207
:1014D000510520F4423010F00C94720AFB01108286
:1014E000CB010895BB274A3031F4992322F4BDE2A1
:1014F000909581959F4F0C947E0ABB27FB01552741
:10150000AA27880F991FAA1FA41710F0A41B839560
:101510005051B9F7A05DAA3308F0A95DA1930097D7
:1015200079F7B111B1931192CB010C94970ADC01B8
:10153000FC01672F71917723E1F7329704C07C910A
:101540006D9370836291AE17BF07C8F3089597FB40
:10155000072E16F4009407D077FD09D00E94130BD4
:1015600007FC05D03EF4909581959F4F08957095A6
:1015700061957F4F0895A1E21A2EAA1BBB1BFD01A6
:101580000DC0AA1FBB1FEE1FFF1FA217B307E40762
:10159000F50720F0A21BB30BE40BF50B661F771FBA
:1015A000881F991F1A9469F760957095809590959A
:1015B0009B01AC01BD01CF010895052E97FB1EF4E0
:1015C00000940E94F40A57FD07D00E94BB0A07FC52
:1015D00003D04EF40C94F40A509540953095219523
:1015E0003F4F4F4F5F4F089590958095709561954F
:1015F0007F4F8F4F9F4F08950E94270BA59F900DFF
:10160000B49F900DA49F800D911D11240895B7FFE4
:101610000C94FC0A0E94FC0A821B930B089507900D
:10162000F691E02D1994AA1BBB1B51E107C0AA1F1C
:10163000BB1FA617B70710F0A61BB70B881F991F73
:101640005A95A9F780959095BC01CD010895A29F68
:10165000B001B39FC001A39F700D811D1124911D86
:10166000B29F700D811D1124911D089511E0C4E1F8
:10167000D1E000E006C022970109FE010BBF0E94E5
:101680000F0BC631D10780E00807A9F7F894FFCF08
:101690000000A00380000100000057656C636F6DBF
:1016A0006520746F20526570656174206166746591
:1016B00072206D652100506C6561736520726570E4
:1016C0006561743A20005665727920676F6F6421F6
:1016D00000206C69766573206C6566742E00206945
:1016E0007320696E636F72726563742E20596F7513
:1016F00027766520676F7420004F68206E6F212069
:10170000596F75206C6F7374203A2800756E6B6E7C
:101710006F776E00576F756C6420796F75206C69F8
:101720006B6520746F20706C617920616761696EF0
:101730003F20287965732F6E6F2900796573006EDD
:101740006F004E6F3F204F6B6179207468656E2C7F
:1017500020676F6F64627965210000000000C60396
:101760009D04190332032403A4030D0A006E616E65
:0A17700000696E66006F76660000E7
:00000001FF
